:0E08FB0006086D664F5B063F010F00010E0000
:1008E200D2A5850D80758901758C4CE4F58AD2A953
:0908F200D2AF30A5FDD28C80F9D3
:03000B0002088C5C
:10088C00C0E0C0D075D000C000C006C007758C4C4D
:10089C00758A00050EAF0EEF3395E0FEC3EF94148E
:1008AC00EE648094804024750E007408250FF8E6E1
:1008BC00F580050FAF0FEF3395E0FED3EF9405EE07
:1008CC00648094804005750F00C28CD007D006D090
:0608DC0000D0D0D0E03294
:03000000020800F3
:0C080000787FE4F6D8FD75810F020847F0
:10080C000208E2E493A3F8E493A34003F68001F218
:10081C0008DFF48029E493A3F85407240CC8C333ED
:10082C00C4540F4420C8834004F456800146F6DFBC
:10083C00E4800B01020408102040809008FBE47E49
:10084C00019360BCA3FF543F30E509541FFEE493B1
:10085C00A360010ECF54C025E060A840B8E493A378
:10086C00FAE493A3F8E493A3C8C582C8CAC583CAA3
:10087C00F0A3C8C582C8CAC583CADFE9DEE780BE5B
:0109090000ED
:00000001FF
