:100901001D09546865206B6579626F617264207995
:100911006F752070726573736564206973200001BF
:0B09210027200128200126000108000B
:10092D00758920758DFD759850D28ED2ACD2AF756C
:06093D000801D29980FEC2
:0300230002088C44
:10088C00C0E0C0D075D000C000C006C00730994D84
:10089C00C299E5086047AF26EF3395E0FEBEFF082E
:1008AC00BFFE05852799801BBEFF08BFFF05852865
:1008BC00998010C3EE64809480400874092526F852
:1008CC00E6F5990526AF26EF3395E0FED3EF941BA2
:1008DC00EE6480948040067526FE75080030980AF8
:1008EC00C298859927750801D299D007D006D000F7
:0508FC00D0D0D0E03275
:03000000020800F3
:0C080000787FE4F6D8FD758128020847D7
:10080C0002092DE493A3F8E493A34003F68001F2CC
:10081C0008DFF48029E493A3F85407240CC8C333ED
:10082C00C4540F4420C8834004F456800146F6DFBC
:10083C00E4800B0102040810204080900901E47E42
:10084C00019360BCA3FF543F30E509541FFEE493B1
:10085C00A360010ECF54C025E060A840B8E493A378
:10086C00FAE493A3F8E493A3C8C582C8CAC583CAA3
:10087C00F0A3C8C582C8CAC583CADFE9DEE780BE5B
:01092C0000CA
:00000001FF
