:100A38000229FC6610083F065B4F666D7C077F67DE
:090A4800777C395E797101180018
:1009BE008C298D2AEB60047E0480027E00EE4F426D
:1009CE0089AE29AF2A7C017D001209338F8CAE29A6
:1009DE00AF2A7C017D001209338D8AD28CD2A9D226
:0209EE00AF2236
:100A1500AB07AA064398504389207E707F80AD03BB
:100A2500AC02120933EFF404F58DF58BD28ED2ACFE
:030A3500D2AF221B
:090A6B00C28BD28AD2AAD2AF22BA
:040A850075A0FF2237
:040A890075A0FF2233
:0D0A5200A2A7E433F52CA2A6E433F52D2273
:10080000E4FEEEFD3395E0FCC3ED9402EC648094CD
:100810008040030208A6EE14600E14600F240270DC
:1008200010A2A5E433FF8009A2A48002A2B3E4339E
:10083000FFEE75F003A42420F8E61460191460227A
:100840001460552403705BEF6058EE75F003A42428
:1008500020F87601804CEE75F003A42420F876028F
:100860008040EF700CEE75F003A42420F87603802E
:1008700031EE75F003A42421F8E6FC08E6C3948861
:10088000EC64809493501BEE75F003A42421F808C7
:1008900006E618700D06800AEE75F003A42420F811
:0608A000E4F60E0208025E
:0108A600222F
:040A8D00E4F51F224B
:040A9100851F80221B
:010A9500223E
:010A9600223D
:010A9700223C
:010A9800223B
:03000B00020A994D
:010A9900322A
:03001300020A9A44
:010A9A003229
:03002300020A5F6F
:0C0A5F00309803C29832309902C29932DC
:1009F000120800120A52120A91E51814600D1460D0
:100A00000D14600D2403700C020A95020A96020A66
:050A100097120A982274
:090A7400120A89120A85020A8D9A
:080A7D00120A741209F080FB5B
:030000000208A74C
:0C08A700787FE4F6D8FD75812D0208EE84
:10093300C2D5EC30E709B2D5E4C39DFDE49CFCEEDF
:1009430030E715B2D5E4C39FFFE49EFE120969C3E5
:10095300E49DFDE49CFC800312096930D507C3E4E0
:060963009FFFE49EFE224E
:1008B300020A7DE493A3F8E493A34003F68001F2D4
:1008C30008DFF48029E493A3F85407240CC8C33346
:1008D300C4540F4420C8834004F456800146F6DF15
:1008E300E4800B0102040810204080900A38E47E63
:1008F300019360BCA3FF543F30E509541FFEE4930A
:10090300A360010ECF54C025E060A840B8E493A3D0
:10091300FAE493A3F8E493A3C8C582C8CAC583CAFB
:10092300F0A3C8C582C8CAC583CADFE9DEE780BEB3
:010A510000A4
:10096900BC000BBE0029EF8DF084FFADF022E4CC72
:10097900F875F008EF2FFFEE33FEEC33FCEE9DEC3B
:10098900984005FCEE9DFE0FD5F0E9E4CEFD22ED81
:10099900F8F5F0EE8420D21CFEADF075F008EF2FCB
:1009A900FFED33FD4007985006D5F0F222C398FDBC
:0509B9000FD5F0EA2259
:00000001FF
