:0A08AF003F065B4F666D7C077F6714
:10088200EF1FAA0670011E4A6016E4FDEDFB3395C8
:10089200E0FAC3EB9438EA6480948050E30D80EC74
:0108A2002233
:10085500D2B4758955D28CE4F58AF58C7F01FE12E8
:100865000882AF8A7E007C007D0A12080074AF2FD3
:0D087500F58274083EF583E493F58080DA87
:030000000208A350
:0C08A300787FE4F6D8FD75810702085547
:10080000BC000BBE0029EF8DF084FFADF022E4CCDC
:10081000F875F008EF2FFFEE33FEEC33FCEE9DECA5
:10082000984005FCEE9DFE0FD5F0E9E4CEFD22EDEB
:10083000F8F5F0EE8420D21CFEADF075F008EF2F35
:10084000FFED33FD4007985006D5F0F222C398FD26
:050850000FD5F0EA22C3
:00000001FF
