:0908F100070848454C4C4F21005A
:1008D000EF1FAA0670011E4A6016E4FDEDFB33957A
:1008E000E0FAC3EB9438EA6480948050E30D80EC26
:0108F00022E5
:10088C00759850758920758DFD758BFDD28ED2A50E
:10089C0030A5FD7F327E001208D030A5F3E4FFEFC7
:1008AC00FD3395E0FCC3ED9406EC64809480500F0E
:1008BC0074082FF8E6F5993099FDC2990F80E03055
:0408CC00A5CE80FB3A
:03000000020800F3
:0C080000787FE4F6D8FD75810E020847F1
:10080C0002088CE493A3F8E493A34003F68001F26E
:10081C0008DFF48029E493A3F85407240CC8C333ED
:10082C00C4540F4420C8834004F456800146F6DFBC
:10083C00E4800B01020408102040809008F1E47E53
:10084C00019360BCA3FF543F30E509541FFEE493B1
:10085C00A360010ECF54C025E060A840B8E493A378
:10086C00FAE493A3F8E493A3C8C582C8CAC583CAA3
:10087C00F0A3C8C582C8CAC583CADFE9DEE780BE5B
:0108FA0000FD
:00000001FF
