:1008DC000412414243000A083F065B4F666D7C07D9
:0208EC007F6724
:10088C00759850758920758DFD758BFDD28EE4FFA2
:10089C00EFFD3395E0FCED64034C601C3098FDC219
:1008AC00988599993099FDC29974122FF8E6B599EB
:1008BC00030F80DCE4FF80D83098FDC298859999AD
:1008CC003099FDC299AF9974D82FF8E6F58080BEA7
:03000000020800F3
:0C080000787FE4F6D8FD758115020847EA
:10080C0002088CE493A3F8E493A34003F68001F26E
:10081C0008DFF48029E493A3F85407240CC8C333ED
:10082C00C4540F4420C8834004F456800146F6DFBC
:10083C00E4800B01020408102040809008DCE47E68
:10084C00019360BCA3FF543F30E509541FFEE493B1
:10085C00A360010ECF54C025E060A840B8E493A378
:10086C00FAE493A3F8E493A3C8C582C8CAC583CAA3
:10087C00F0A3C8C582C8CAC583CADFE9DEE780BE5B
:0108EE000009
:00000001FF
